:100000000C9462000C948A000C948A000C948A0070
:100010000C948A000C948A000C948A000C948A0038
:100020000C948A000C948A000C948A000C94F004BE
:100030000C948A000C948A000C948A000C948A0018
:100040000C94A6040C948A000C9474040C944E0432
:100050000C948A000C948A000C948A000C948A00F8
:100060000C948A000C948A000000000023002600F3
:10007000290000000000240027002A0000000000E2
:10008000250028002B0004040404040404040202D4
:100090000202020203030303030301020408102007
:1000A0004080010204081020010204081020000012
:1000B0000008000201000003040700000000000027
:1000C00000002C0611241FBECFEFD8E0DEBFCDBF4D
:1000D00022E0A4E5B1E001C01D92AA37B207E1F722
:1000E00011E0A0E0B1E0EEE9F6E102C005900D926A
:1000F000A435B107D9F710E0C2E6D0E004C02197DB
:10010000FE010E945509C136D107C9F70E94770642
:100110000C944D0B0C940000FC0124813581621776
:10012000730720F480819181009729F410926B016C
:100130008BE691E00895860F971F0895AF92BF92C6
:10014000CF92DF92EF92FF920F931F93CF93DF93A3
:100150006C017B018B01040F151FEB015E01AE18D2
:10016000BF08C017D10759F06991D601ED91FC91F4
:100170000190F081E02DC6010995892B79F7C50121
:10018000DF91CF911F910F91FF90EF90DF90CF9073
:10019000BF90AF900895FC01538D448D252F30E022
:1001A000842F90E0821B930B541710F0CF96089584
:1001B00001970895FC01918D828D981761F0A28DB1
:1001C000AE0FBF2FB11D5D968C91928D9F5F9F7377
:1001D000928F90E008958FEF9FEF0895FC01918D2D
:1001E000828D981731F0828DE80FF11D858D90E09A
:1001F00008958FEF9FEF0895FC01918D228D892F37
:1002000090E0805C9F4F821B91098F73992708951E
:1002100081EC91E00E94FC0021E0892B09F420E0B0
:10022000822F089580E090E0892B29F00E94080138
:1002300081110C9400000895FC01A48DA80FB92F22
:10024000B11DA35ABF4F2C91848D90E001968F73FE
:100250009927848FA689B7892C93A089B1898C911D
:10026000837080648C93938D848D981306C002886C
:10027000F389E02D80818F7D80830895EF92FF9236
:100280000F931F93CF93DF93EC0181E0888F9B8DB9
:100290008C8D98131AC0E889F989808185FF15C073
:1002A0009FB7F894EE89FF896083E889F989808196
:1002B0008370806480839FBF81E090E0DF91CF9165
:1002C0001F910F91FF90EF900895F62E0B8D10E087
:1002D0000F5F1F4F0F731127E02E8C8D8E110CC0F6
:1002E0000FB607FCFACFE889F989808185FFF5CF41
:1002F000CE010E941C01F1CFEB8DEC0FFD2FF11D03
:10030000E35AFF4FF0829FB7F8940B8FEA89FB897D
:1003100080818062CFCFCF93DF93EC01888D8823DB
:10032000B9F0AA89BB89E889F9898C9185FD03C058
:10033000808186FD0DC00FB607FCF7CF8C9185FF3D
:10034000F2CF808185FFEDCFCE010E941C01E9CF65
:10035000DF91CF910895833081F028F4813099F0B6
:100360008230A9F008958730A9F08830C9F0843030
:10037000B1F4809180008F7D03C0809180008F77E1
:1003800080938000089584B58F7784BD089584B5E7
:100390008F7DFBCF8091B0008F778093B000089560
:1003A0008091B0008F7DF9CF1F93CF93DF93282FDB
:1003B00030E0F901E255FF4F8491F901E656FF4F15
:1003C000D491F901EA57FF4FC491CC23A9F0162F1D
:1003D00081110E94AB01EC2FF0E0EE0FFF1FE458FB
:1003E000FF4FA591B4918FB7F894EC91111108C00B
:1003F000D095DE23DC938FBFDF91CF911F910895BD
:10040000DE2BF8CFCF93DF9390E0FC01E656FF4F51
:1004100024918A579F4FFC0184918823D1F090E06A
:10042000880F991FFC01EE58FF4FA591B491FC0174
:10043000E458FF4FC591D49161110EC09FB7F89455
:100440008C91E22FE0958E238C932881E223E88320
:100450009FBFDF91CF9108958FB7F894EC91E22B75
:10046000EC938FBFF6CF3FB7F894809167019091DE
:100470006801A0916901B0916A0126B5A89B05C0E9
:100480002F3F19F00196A11DB11D3FBFBA2FA92F13
:10049000982F8827BC01CD01620F711D811D911D10
:1004A00042E0660F771F881F991F4A95D1F708957C
:1004B000089590E080E00895CF93DF93EC0160E031
:1004C0008E810E94D40161E08E810E94D40160E09F
:1004D0008E810E94D4018BE891E00197F1F7DF91C2
:1004E000CF910895CF92DF92EF92FF920F931F93D7
:1004F000CF93DF936C017C0187E0E80EF11CD0E024
:10050000C0E0062F10E0B8010C2E02C0759567956B
:100510000A94E2F76170F70181917F010E94D40192
:100520002196C430D10579F7C601DF91CF911F9193
:100530000F91FF90EF90DF90CF900C945C02CF92E0
:10054000DF92EF92FF920F931F93CF93DF93EC0113
:10055000F62E642F8C810E94D4018D818F3F19F07B
:1005600060E00E94D4010F2D10E08F8584FF25C02C
:100570006E0187E0C80ED11CF12CE12CB8010E2CC5
:1005800002C0759567950A94E2F76170F601819152
:100590006F010E94D401FFEFEF1AFF0A88E0E8160E
:1005A000F10461F7CE01DF91CF911F910F91FF9080
:1005B000EF90DF90CF900C945C02B80184E07595C9
:1005C00067958A95E1F7CE010E9472026F2DCE01E8
:1005D000DF91CF911F910F91FF90EF90DF90CF901F
:1005E0000C94720240E0682F8EE592E00C949F021A
:1005F000CF93DF93613029F090916D0298609093D2
:100600006D02609371021092720290E490937302F3
:1006100080937402805C8093750261E08091620235
:100620000E940202809163028F3F19F061E00E94F4
:10063000020261E0809164020E940202CEE5D2E0F3
:100640009E012E55324080916D0284FD0BC084E0E6
:1006500090E021962817390744F461E08E810E94CA
:100660000202EECF88E090E0F4CF8BE39DE00197AB
:10067000F1F760E0809162020E94D40160E0809115
:1006800064020E94D401809163028F3F19F060E000
:100690000E94D40180916D0284FD39C063E08EE533
:1006A00092E00E947202CBE4D6E4CE010197F1F70A
:1006B00063E08EE592E00E9472022197F1F763E019
:1006C0008EE592E00E94720283E592E00197F1F7D5
:1006D00062E08EE592E00E94720280916D0280627B
:1006E0000E94F20284E080936E028CE00E94F2028B
:1006F00081E00E94F2028BE39FE10197F1F782E033
:1007000080936F0286E0DF91CF910C94F2028062B9
:100710000E94F2028BE496E40197F1F780916D025A
:1007200080620E94F20283E592E00197F1F78091E6
:100730006D0280620E94F202D0CF41E00E949F02CF
:1007400081E090E008950F931F93CF93DF93EC0126
:1007500088819981009759F02A813B8126173707B4
:1007600030F081E0DF91CF911F910F9108958B01BF
:100770006F5F7F4F0E94800A009759F099838883AA
:100780001B830A832C813D81232B59F7FC011082A6
:10079000E8CF80E0E7CFEF92FF920F931F93CF93C4
:1007A000DF9300D0CDB7DEB78C0169831A82FC01DC
:1007B000E480F580FFEFEF1AFF0AB7010E94A30360
:1007C000882381F0F8012081318184819581BE01E7
:1007D0006F5F7F4F820F931F0E94460BF801F582D7
:1007E000E48281E00F900F90DF91CF911F910F91E4
:1007F000FF90EF900895FC0180819181009711F0A6
:100800000C94F7090895EF92FF920F931F93CF93E3
:10081000DF93EC017B01198218821B821A821D82F0
:100820001C82FB0101900020E9F731978F01061B24
:10083000170BB8010E94A30328813981811113C0CD
:100840002115310519F0C9010E94F7091982188292
:100850001D821C821B821A82DF91CF911F910F9102
:10086000FF90EF9008951D830C83B701C901DF91BC
:10087000CF911F910F91FF90EF900C94460BFB01CD
:1008800001900020E9F73197AF01461B570BDC01BF
:10089000ED91FC910280F381E02D09941F920F925B
:1008A0000FB60F9211242F933F934F935F936F9343
:1008B0007F938F939F93AF93BF93EF93FF9381ECBD
:1008C00091E00E941C01FF91EF91BF91AF919F9128
:1008D0008F917F916F915F914F913F912F910F90E9
:1008E0000FBE0F901F9018951F920F920FB60F9288
:1008F00011242F938F939F93EF93FF93E091D10156
:10090000F091D2018081E091D701F091D80182FD70
:100910001BC090818091DA018F5F8F732091DB0182
:10092000821741F0E091DA01F0E0EF53FE4F958F2E
:100930008093DA01FF91EF919F918F912F910F900A
:100940000FBE0F901F9018958081F4CF1F920F92C9
:100950000FB60F9211242F933F938F939F93AF93D2
:10096000BF938091630190916401A0916501B09162
:1009700066013091620123E0230F2D3758F501966F
:10098000A11DB11D209362018093630190936401C6
:10099000A0936501B0936601809167019091680111
:1009A000A0916901B0916A010196A11DB11D8093CA
:1009B000670190936801A0936901B0936A01BF91A8
:1009C000AF919F918F913F912F910F900FBE0F90FC
:1009D0001F90189526E8230F0296A11DB11DD2CFB6
:1009E0001F920F920FB60F9211241F932F933F93D4
:1009F0004F935F936F937F938F939F93AF93BF9327
:100A0000CF93DF93EF93FF9310916E01112339F190
:100A100080916101811123C02091000130E0F90132
:100A2000E255FF4F8491F901E656FF4FD491F90149
:100A3000EA57FF4FC491CC2379F081110E94AB019A
:100A4000EC2FF0E0EE0FFF1FE859FF4FA591B49196
:100A5000EC91DE2381E009F480E0809360018091D5
:100A600061018823E1F080915F0191E0980F9093FC
:100A70005F01811114C060916C018AE00E94D40171
:100A800060E08CE00E94D4011092610180915D01D0
:100A900090915E01019690935E0180935D0180913B
:100AA0005F01883010F010925F01112309F492C0A9
:100AB0008091610181118EC090916001992329F08C
:100AC00080915C018F5F80935C0180915A0120913D
:100AD0005B01921709F44AC02BE0803508F02DE144
:100AE000820F80935A0190935B0120915A01203A22
:100AF00008F470C08091580190915901969587959E
:100B0000909359018093580130915C01353028F061
:100B100098609093590180935801205A20935A016C
:100B200010925C0180916D01882309F484C080914A
:100B300057018F5F809357018C3008F44BC0809130
:100B4000580190915901382F3F73232F26952695F0
:100B5000287048E0420F421769F0E22FF0E0EB5EA8
:100B6000FE4F5081351739F02F5FF5CF8C5E8093A3
:100B70005A01BBCF20E040E1249F9001112436E0D0
:100B8000969587953A95E1F7482F95958795959590
:100B90008795887098E0980F981749F0E82FF0E053
:100BA000EB5EFE4F5081451719F08F5FF5CF80E067
:100BB000822B9091BF01911121C0809356019CEF2F
:100BC000980F9D34D8F010926D01809155018F5F80
:100BD00080935501FF91EF91DF91CF91BF91AF913C
:100BE0009F918F917F916F915F914F913F912F9145
:100BF0001F910F900FBE0F901F901895E091BF01AD
:100C000091E09E0F9093BF01F0E0E159FE4F808389
:100C10009091BF0180915601981750F010926D018C
:100C2000809154018F5F8093540181E08093C001D3
:100C300010925701CFCF809158019091590188337C
:100C40009B4041F681E080936D0110925701109214
:100C5000BF011092C001BECFE1ECF1E0138212821D
:100C600088EE93E0A0E0B0E084839583A683B78309
:100C700089E291E09183808385EC90E09587848779
:100C800084EC90E09787868780EC90E0918B808B56
:100C900081EC90E0938B828B82EC90E0958B848B3F
:100CA00086EC90E0978B868B118E128E138E148EAD
:100CB000EEE5F2E0138212828BE391E09183808370
:100CC0008DE084838FEF85838CE086838BE0878340
:100CD0008AE0808789E0818788E08287138614868E
:100CE00015861686178661E080E10C94F802CF9392
:100CF000DF93CDB7DEB7C358D1090FB6F894DEBF86
:100D00000FBECDBF789484B5826084BD84B5816008
:100D100084BD85B5826085BD85B5816085BD8091C6
:100D20006E00816080936E0010928100809181003E
:100D30008260809381008091810081608093810036
:100D4000809180008160809380008091B1008460F8
:100D50008093B1008091B00081608093B000809159
:100D60007A00846080937A0080917A008260809318
:100D70007A0080917A00816080937A0080917A0075
:100D8000806880937A001092C10061E08FE00E9439
:100D9000020264E084E10E94F80281E080936C0129
:100DA00084E0809300018EE0E7E0F1E0DE0111963F
:100DB00001900D928A95E1F77E0123E0E20EF11C8D
:100DC00011E0412CF4E25F2EF4EF6F2E712C812C98
:100DD000ADE79A2EA12CB12CF701219131917F0121
:100DE00050E040E0C301B2010E943309CA01B901D9
:100DF000A50194010E9433092230310541055105B6
:100E000008F0D1C11F5F173039F7E091D101F0919F
:100E1000D20182E08083E091CD01F091CE01108279
:100E2000E091CF01F091D0018FEC80831092D90135
:100E3000E091D501F091D60186E08083E091D30165
:100E4000F091D401808180618083E091D301F091A1
:100E5000D401808188608083E091D301F091D40136
:100E6000808180688083E091D301F091D4018081FA
:100E70008F7D808380916E01811105C081E0809318
:100E80006E0110926D01EAE04E2E512C612C712CF6
:100E90007AE0372E65E471E0CE0182589F4F0E94C0
:100EA000030465E471E0CE0188589F4F0E9403045B
:100EB0008091C001882309F416C14091BF014350BD
:100EC000403508F040E550E060E771E0CE01019662
:100ED0000E943D0B1092C0012091BF01EFE6F1E0AE
:100EE0008FEF9FEF215098F031918327082E829544
:100EF000807F8025092E982F82958F7008268695F1
:100F000098278927880F880F880F8025EBCF883B8B
:100F1000904F09F0E8C0BE016F5F7F4FCE018E5841
:100F20009F4F0E940304E8964EAD5FADE897E496AC
:100F30006EAD7FADE49781EC91E00E949E0063E48A
:100F400071E081EC91E00E943F04F12CE12C8701DB
:100F50002FEFE21AF20AE8968EAD9FADE8970817D8
:100F60001907C0F4B801CE018E589F4F0E948C0023
:100F7000FC0180818C3271F0B801CE018E589F4FF8
:100F80000E948C00FC016081CE0188589F4F0E9416
:100F9000CB03DDCF10E000E0B701CE018E589F4FAC
:100FA0000E948C00FC018081843029F1309E500128
:100FB000319EB00C1124B701CE018E589F4F0E9474
:100FC0008C00FC010081002E000C110B0053110954
:100FD0000A0D1B1DB701CE018E589F4F0E948C0039
:100FE000FC016081CE0182589F4F0E94CB03FFEF2E
:100FF000EF1AFF0AD1CFE1E0809171028111E0E0A8
:10100000E195F0E0E25AFD4F848980680E94F20287
:10101000EE964EAD5FADEE97EA966EAD7FADEA9778
:101020008EE592E00E949E00E0917102E23008F0AD
:1010300099C0E150F0E0E25AFD4F848980680E9437
:10104000F20266E471E08EE592E00E943F04E091D6
:101050007102E33008F088C0E150F0E0E25AFD4F41
:10106000848980680E94F2026801012E000CEE085B
:10107000FF08F7FE7BC041E06DE28EE592E00E9442
:101080009F0222273327A9012C193D094E095F0928
:10109000E2961FAEE29761E5E62EF12CEC0EFD1E06
:1010A00080E2E80EF11CCA01B901A30192010E947D
:1010B0003309605DF70162937F0121153105410518
:1010C000510589F7E114F10429F0B7018EE592E0AA
:1010D0000E943F04CE018E589F4F0E94FB0361E0A7
:1010E000063211050CF460E08FE00E94D4010E94EA
:1010F00033024B015C0184E6C82ED12CE12CF12C8B
:101100000E943302681979098A099B09683E734075
:1011100081059105A8F3F1E0CF1AD108E108F108A3
:1011200028EE820E23E0921EA11CB11CC114D10432
:10113000E104F10429F7CE0188589F4F0E94FB0378
:10114000CE0182589F4F0E94FB0380E090E0892BE4
:1011500009F4A0CE0E940801882309F49BCE0E94C6
:10116000000096CEE1E066CFE2E077CFA7019601DE
:10117000E2961FAEE29791E5E92EF12CEC0EFD1EF2
:10118000F0E2EF0EF11CCA01B901A30192010E9425
:101190003309605DF70162937F0121153105410537
:1011A000510589F78FCF163009F42FCE10928000A9
:1011B00088E08093810080918100182B109381003A
:1011C000309389002093880080916F008260809323
:1011D0006F0061E08CE00E94020260E080910001FB
:1011E0000E94020261E08AE00E94020260916C01AA
:1011F0008AE00E94D40109CE2F923F924F925F92D3
:101200006F927F928F929F92AF92BF92CF92DF9216
:10121000EF92FF920F931F93CF93DF93CDB7DEB77B
:10122000CA1BDB0B0FB6F894DEBF0FBECDBF09940F
:101230002A88398848885F846E847D848C849B8466
:10124000AA84B984C884DF80EE80FD800C811B8174
:10125000AA81B981CE0FD11D0FB6F894DEBF0FBEA3
:10126000CDBFED010895A1E21A2EAA1BBB1BFD0103
:101270000DC0AA1FBB1FEE1FFF1FA217B307E40775
:10128000F50720F0A21BB30BE40BF50B661F771FCD
:10129000881F991F1A9469F76095709580959095AD
:1012A0009B01AC01BD01CF010895EE0FFF1F05901A
:1012B000F491E02D09940F931F93CF93DF93823025
:1012C000910510F482E090E0E0917802F0917902CB
:1012D00030E020E0B0E0A0E0309799F4211531052E
:1012E00009F44AC0281B390B24303105D8F58A810E
:1012F0009B816115710589F1FB0193838283FE0156
:1013000011C0408151810281138148175907E0F0D3
:101310004817590799F4109761F012960C93129799
:1013200013961C933296CF01DF91CF911F910F91AD
:1013300008950093780210937902F4CF21153105B6
:1013400051F04217530738F0A901DB019A01BD01A2
:10135000DF01F801C1CFEF01F9CF909379028093BB
:101360007802CDCFFE01E20FF31F819391932250BB
:10137000310939832883D7CF2091760230917702C3
:10138000232B41F420910301309104013093770223
:10139000209376022091010130910201211531053F
:1013A00041F42DB73EB74091050150910601241B31
:1013B000350BE0917602F0917702E217F307A0F483
:1013C0002E1B3F0B2817390778F0AC014E5F5F4F9B
:1013D0002417350748F04E0F5F1F50937702409354
:1013E0007602819391939FCFF0E0E0E09CCFCF9382
:1013F000DF930097E9F0FC01329713821282A091EB
:101400007802B0917902ED0130E020E01097A1F46C
:1014100020813181820F931F2091760230917702D3
:101420002817390709F061C0F0937702E09376023C
:10143000DF91CF910895EA01CE17DF07E8F54A81E1
:101440005B819E0141155105B1F7E901FB83EA83F8
:1014500049915991C40FD51FEC17FD0761F48081A4
:1014600091810296840F951FE90199838883828177
:1014700093819B838A83F0E0E0E012968D919C91AA
:1014800013970097B9F52D913C911197CD010296D4
:10149000820F931F20917602309177022817390727
:1014A00039F6309751F51092790210927802B09384
:1014B0007702A0937602BCCFD383C283408151814F
:1014C000840F951FC817D90761F44E5F5F4F88815D
:1014D0009981480F591F518340838A819B8193834F
:1014E00082832115310509F0B0CFF0937902E093A2
:1014F00078029ECFFD01DC01C0CF13821282D7CFCC
:10150000B0E0A0E0E6E8FAE00C94FE088C01009759
:1015100051F4CB010E945B098C01C801CDB7DEB745
:10152000E0E10C941A09FC01E60FF71F9C01225020
:101530003109E217F30708F49DC0D901CD91DC9180
:101540001197C617D70798F0C530D10530F3CE01F3
:1015500004978617970708F3C61BD70B2297C193EA
:10156000D1936D937C93CF010E94F709D6CF5B0195
:10157000AC1ABD0A4C018C0E9D1EA0917802B09150
:101580007902512C412CF12CE12C109731F58091EE
:101590007602909177028815990509F05CC046168D
:1015A000570608F058C08091010190910201009700
:1015B00041F48DB79EB74091050150910601841BFF
:1015C000950BE817F90708F055C0F0937702E09300
:1015D0007602F90171836083A0CF8D919C91119760
:1015E00012966C90129713967C901397A815B905D4
:1015F00059F56C0142E0C40ED11CCA14DB0420F181
:10160000AC014A195B09DA011296159780F06282E3
:10161000738251834083D9016D937C93E114F1046B
:1016200071F0D7011396FC93EE93129776CF229622
:101630008C0F9D1FF90191838083F301EFCFF0930D
:101640007902E093780269CF4816590608F42C0114
:101650007D01D3019ACFCB010E945B097C010097E9
:1016600049F0AE01B8010E943D0BC8010E94F70984
:10167000870153CF10E000E050CFFB01DC0102C036
:1016800001900D9241505040D8F70895FB01DC01C4
:0E16900001900D920020E1F70895F894FFCF2D
:10169E000B00007A028000000001000800400000EC
:1016AE00010004050D0D0E131516191A1C232526FF
:1016BE00292A2C3234000000003E019E00CB008B04
:1016CE0001FC00DA00EE00000000009D039E0059B0
:1016DE000258020D0A0054656D7065726174757260
:0416EE00653A000059
:00000001FF
