:100000000C9462000C948A000C948A000C948A0070
:100010000C948A000C948A000C948A000C948A0038
:100020000C948A000C948A000C948A000C94170497
:100030000C948A000C948A000C948A000C948A0018
:100040000C94CD030C948A000C949B030C947503C0
:100050000C948A000C948A000C948A000C948A00F8
:100060000C948A000C948A000000000024002700F1
:100070002A0000000000250028002B0000000008D6
:10008000000201000003040700000000000000005F
:1000900000000000230026002900040404040404D6
:1000A0000404020202020202030303030303010227
:1000B00004081020408001020408102001020408F6
:1000C00010203B0811241FBECFEFD8E0DEBFCDBF0C
:1000D00022E0A8EFB1E001C01D92AC3AB207E1F70F
:1000E00011E0A0E0B1E0E2E4F8E102C005900D9279
:1000F000A83FB107D9F710E0C2E6D0E004C02197CD
:10010000FE010E94270AC136D107C9F70E94CF0419
:100110000C941F0C0C940000AF92BF92CF92DF9210
:10012000EF92FF920F931F93CF93DF936C017B01AC
:100130008B01040F151FEB015E01AE18BF08C0173D
:10014000D10759F06991D601ED91FC910190F081B0
:10015000E02DC6010995892B79F7C501DF91CF9173
:100160001F910F91FF90EF90DF90CF90BF90AF90D5
:100170000895FC01538D448D252F30E0842F90E0AD
:10018000821B930B541710F0CF9608950197089592
:10019000FC01918D828D981761F0A28DAE0FBF2F5B
:1001A000B11D5D968C91928D9F5F9F73928F90E0B1
:1001B00008958FEF9FEF0895FC01918D828D981720
:1001C00031F0828DE80FF11D858D90E008958FEF5D
:1001D0009FEF0895FC01918D228D892F90E0805C26
:1001E0009F4F821B91098F73992708958BE092E0AE
:1001F0000E94EA0021E0892B09F420E0822F089573
:1002000080E090E0892B29F00E94F60081110C9487
:1002100000000895FC01A48DA80FB92FB11DA35AA9
:10022000BF4F2C91848D90E001968F739927848F16
:10023000A689B7892C93A089B1898C918370806439
:100240008C93938D848D981306C00288F389E02DDA
:1002500080818F7D80830895EF92FF920F931F938B
:10026000CF93DF93EC0181E0888F9B8D8C8D981369
:100270001AC0E889F989808185FF15C09FB7F89475
:10028000EE89FF896083E889F989808183708064C1
:1002900080839FBF81E090E0DF91CF911F910F910C
:1002A000FF90EF900895F62E0B8D10E00F5F1F4F1B
:1002B0000F731127E02E8C8D8E110CC00FB607FC2A
:1002C000FACFE889F989808185FFF5CFCE010E94B8
:1002D0000A01F1CFEB8DEC0FFD2FF11DE35AFF4F1B
:1002E000F0829FB7F8940B8FEA89FB898081806246
:1002F000CFCFCF93DF93EC01888D8823B9F0AA8903
:10030000BB89E889F9898C9185FD03C0808186FDD0
:100310000DC00FB607FCF7CF8C9185FFF2CF80811F
:1003200085FFEDCFCE010E940A01E9CFDF91CF9189
:100330000895833081F028F4813099F08230A9F05B
:1003400008958730A9F08830C9F08430B1F48091E5
:1003500080008F7D03C0809180008F778093800024
:10036000089584B58F7784BD089584B58F7DFBCFC4
:100370008091B0008F778093B00008958091B00095
:100380008F7DF9CF1F93CF93DF93282F30E0F901B2
:10039000E458FF4F8491F901E255FF4FD491F901E0
:1003A000E656FF4FC491CC23A9F0162F81110E946D
:1003B0009901EC2FF0E0EE0FFF1FEE58FF4FA591D3
:1003C000B4918FB7F894EC91111108C0D095DE2349
:1003D000DC938FBFDF91CF911F910895DE2BF8CF73
:1003E000CF93DF9390E0FC01E255FF4F24918656B6
:1003F0009F4FFC0184918823D1F090E0880F991FD2
:10040000FC01E859FF4FA591B491FC01EE58FF4F54
:10041000C591D49161110EC09FB7F8948C91E22FD1
:10042000E0958E238C932881E223E8839FBFDF91A0
:10043000CF9108958FB7F894EC91E22BEC938FBF96
:10044000F6CF3FB7F8948091010290910202A091FB
:100450000302B091040226B5A89B05C02F3F19F0F6
:100460000196A11DB11D3FBFBA2FA92F982F882734
:10047000BC01CD01620F711D811D911D42E0660F0F
:10048000771F881F991F4A95D1F708958627082E50
:100490008295807F8025092E982F82958F7008265F
:1004A000869598278927880F880F880F80250895BB
:1004B000FC0101900020E9F73197AF01481B590B6F
:1004C000BC018BE092E00C948C008F929F92AF92D3
:1004D000BF92CF92DF92EF92FF920F931F93CF9331
:1004E000DF93CDB7DEB7A1970FB6F894DEBF0FBE8E
:1004F000CDBF6C01990FEE08FF08F7FE41C06DE219
:100500008BE092E00E942C018C0122273327A90165
:100510002C193D094E095F0919A2CE0181967C0173
:100520009AE0892E912CA12CB12CCA01B901A50108
:1005300094010E94050A605DF70162937F01211515
:1005400031054105510589F790E080E0309719F0B9
:10055000CF010E945802800F911FA1960FB6F89408
:10056000DEBF0FBECDBFDF91CF911F910F91FF90E6
:10057000EF90DF90CF90BF90AF909F908F900895B5
:10058000A701960119A28E010F5D1F4F8AE0C82EA8
:10059000D12CE12CF12CCA01B901A70196010E94CE
:1005A000050A605DF80162938F012115310541054F
:1005B000510589F790E080E0309779F2CF010E94F1
:1005C0005802CBCF0F931F9390E0FC01E255FF4FF1
:1005D0006491FC01E656FF4FE491F0E0EE0FFF1F3F
:1005E000E057FF4F8591949100E412E42FE030E052
:1005F000462F0E948A04611571058105910529F035
:100600006F5F7F4F8F4F9F4F9F701F910F91089586
:10061000CF93DF93EC0188819981009711F00E94BC
:10062000C90A198218821D821C821B821A82DF91DC
:10063000CF910895FC0180819181009711F00C9475
:10064000C90A08950F931F93CF93DF93EC0188811C
:100650009981009759F02A813B812617370730F09E
:1006600081E0DF91CF911F910F9108958B016F5F12
:100670007F4F0E94520B009759F0998388831B8308
:100680000A832C813D81232B59F7FC011082E8CF8E
:1006900080E0E7CFEF92FF920F931F93CF93DF930A
:1006A000EC017B018A01BA010E94220381110BC077
:1006B000CE010E940803CE01DF91CF911F910F91CF
:1006C000FF90EF9008951D830C83B7018881998175
:1006D0000E94180CF0CFFB0101900020E9F7319740
:1006E000AF01461B570B0C944A031F920F920FB693
:1006F0000F9211242F933F934F935F936F937F93A8
:100700008F939F93AF93BF93EF93FF938BE092E010
:100710000E940A01FF91EF91BF91AF919F918F913C
:100720007F916F915F914F913F912F910F900FBEED
:100730000F901F9018951F920F920FB60F921124D1
:100740002F938F939F93EF93FF93E0911B02F09170
:100750001C028081E0912102F091220282FD1BC0E7
:100760009081809124028F5F8F73209125028217E0
:1007700041F0E0912402F0E0E55FFD4F958F80931A
:100780002402FF91EF919F918F912F910F900FBEB7
:100790000F901F9018958081F4CF1F920F920FB683
:1007A0000F9211242F933F938F939F93AF93BF93F7
:1007B0008091FD019091FE01A091FF01B091000296
:1007C0003091FC0123E0230F2D3758F50196A11D30
:1007D000B11D2093FC018093FD019093FE01A09335
:1007E000FF01B09300028091010290910202A0915A
:1007F0000302B09104020196A11DB11D8093010274
:1008000090930202A0930302B0930402BF91AF91B0
:100810009F918F913F912F910F900FBE0F901F903E
:10082000189526E8230F0296A11DB11DD2CF1F9265
:100830000F920FB60F9211241F932F933F934F9354
:100840005F936F937F938F939F93AF93BF93CF9358
:10085000DF93EF93FF9380910A02882321F1809127
:10086000060291E0980F9093060281111CC0C0917E
:1008700008021091000180910902C81770F160917F
:1008800005028AE00E94C20160E0812F0E94C2013D
:1008900010920A028091FA019091FB0101969093C7
:1008A000FB018093FA0180910602883010F01092CB
:1008B0000602FF91EF91DF91CF91BF91AF919F9190
:1008C0008F917F916F915F914F913F912F911F91E8
:1008D0000F900FBE0F901F901895EC2FF0E0EF5F78
:1008E000FE4F608120910702D1E0D20FD093070222
:1008F00081E090E001C0880F2A95EAF76823812FF4
:100900000E94C201D630A8F210920702CF5FC093B6
:100910000802C9CFCF92DF92EF92FF920F931F93FD
:10092000E82FF92F05C0015011092109310961F1A2
:10093000908196239417B9F305C00150110921093C
:10094000310911F1908196239413F7CFC12CD12C4A
:10095000E12CF12C0AC08FEFC81AD80AE80AF80A6D
:100960000C151D052E053F0579F08081862384171F
:1009700091F36C2D7D2D8E2D9F2D1F910F91FF904A
:10098000EF90DF90CF90089560E070E080E090E01D
:100990001F910F91FF90EF90DF90CF900895CF932C
:1009A000DF93CDB7DEB7E0970FB6F894DEBF0FBE8A
:1009B000CDBF789484B5826084BD84B5816084BDE8
:1009C00085B5826085BD85B5816085BD80916E00ED
:1009D000816080936E00109281008091810082601E
:1009E000809381008091810081608093810080915B
:1009F00080008160809380008091B100846080934A
:100A0000B1008091B00081608093B00080917A0045
:100A1000846080937A0080917A00826080937A006B
:100A200080917A00816080937A0080917A0080685A
:100A300080937A001092C100E0911B02F0911C0299
:100A400082E08083E0911702F09118021082E09119
:100A50001902F0911A028FEC808310922302E09128
:100A60001F02F091200286E08083E0911D02F09148
:100A70001E02808180618083E0911D02F0911E0240
:100A8000808188608083E0911D02F0911E02808148
:100A900080688083E0911D02F0911E0280818F7D2D
:100AA000808361E08DE00E94F00160E08CE00E94B4
:100AB000F00181E0809305028FE0809300018EE0D9
:100AC000EFEAF1E0DE01119601900D928A95E1F7CF
:100AD0007E0123E0E20EF11C11E0812CB4E29B2E9A
:100AE000B4EFAB2EB12C412C0DE7502E612C712CA4
:100AF000D7012D913D917D0150E040E0C501B40149
:100B00000E94050ACA01B901A30192010E94050AC7
:100B1000223031054105510508F084C21F5F1730AE
:100B200039F7F3E06F2E712CA3E22A2E312C18A294
:100B30001F8E1AA219A21CA21BA250E040E067EF70
:100B400071E0CE014F960E944A031A8E198E1C8EB8
:100B50001B8E1E8E1D8E50E040E067EF71E0CE01CF
:100B600049960E944A0360E08DE00E94C201C301E1
:100B70000197F1F761E08DE00E94C201C101019788
:100B8000F1F760E08DE00E94C2018CE00E94E20279
:100B9000072E000C880B990B0E949F0826E933E46E
:100BA0004BE05DE30E94DA0820E030E040E05FE3E4
:100BB0000E94DA080E94CF096DA37EA38FA398A795
:100BC000EDA1FEA1FEA7EDA760E08BE00E94C201AF
:100BD000C3010197F1F761E08BE00E94C201C101FE
:100BE0000197F1F760E08BE00E94C20189E00E946A
:100BF000E202072E000C880B990B0E949F0826E941
:100C000033E44BE05DE30E94DA0820E030E040E0AE
:100C10005FE30E94DA080E94CF094B0178AB6FA70F
:100C200060E088E00E94C201C3010197F1F761E032
:100C300088E00E94C201C1010197F1F760E088E0FD
:100C40000E94C20187E00E94E202072E000C880B7E
:100C5000990B0E949F0826E933E44BE05DE30E9474
:100C6000DA0820E030E040E05FE30E94DA080E940A
:100C7000CF0969A77AA78BA79CA749A45AA460E0CB
:100C800086E00E94C201C3010197F1F761E086E0AE
:100C90000E94C201C1010197F1F760E086E00E9465
:100CA000C20185E00E94E202072E000C880B990B1E
:100CB0000E949F0826E933E44BE05DE30E94DA08D6
:100CC00020E030E040E05FE30E94DA080E94CF09B4
:100CD0006B018B018DA19EA10E9465028FED91E0B9
:100CE0000E945802C4010E9465028FED91E00E94AB
:100CF000580289A59AA50E9465028FED91E00E9495
:100D00005802C6010E9465028FED91E00E945802D0
:100D10008DA59EA58436910574F0AFA5B8A9A4361B
:100D2000B1054CF0B4E64B1651042CF06BEE71E0BB
:100D30000436110514F461EE71E0CE0149960E946B
:100D40006B034D8D5E8D698D7A8D8BE092E00E94F4
:100D50008C0085EF91E00E945802E0E4E0937C0073
:100D600080917A00806480937A0080917A0086FD79
:100D7000FCCF90917800809179001C8A1B8A1E8A92
:100D80001D8A188E1F8A89279827892797FD019623
:100D90004AE0BE016F5F7F4F959587950E94680876
:100DA000BE016F5F7F4FCE0143960E946B031A8294
:100DB00019821C821B821E821D82698D7A8D6115AB
:100DC000710531F04D8D5E8DCE0101960E944A0372
:100DD000EB88FC88E114F10409F48BC00F89188DAD
:100DE00001151105B9F08D819E81080F191FB801F9
:100DF000CE0101960E942203882309F47AC029813A
:100E00003A818D819E81B701820F931F0E94180C39
:100E10001E830D8369817A816115710509F46EC0A5
:100E20004D815E81CE014F960E944A03CE0101960C
:100E30000E941A03CE0143960E941A03CF8CD8A0B9
:100E4000F60101900020E9F731978F010C191D0977
:100E5000902EFDE4F01708F4A8C080910A028111D9
:100E6000FCCF33E0F32EF00E6F2D8FEF9FEF0E943B
:100E70004602EF2DF0E044E0F595E7954A95E1F75D
:100E8000E153FE4F208120930901EF2DEF70F0E038
:100E9000E153FE4F208120930A018C2C51E0A52EB6
:100EA00051E0B52E760122E0A20EB11C2E2D28199C
:100EB000291548F56701D7016D917D010E94460211
:100EC000D601EC91F0E024E0F595E7952A95E1F75D
:100ED000E153FE4F2081F5012087F7013197E08132
:100EE000EF70F0E0E153FE4F2081D50119962C936D
:100EF000DACFCE0101960E9408038CCFCE014F9627
:100F00000E94080393CFA801552721E0200F220F4C
:100F100080959095DA01AA0FBB1FA55FBE4FFC011B
:100F200064E0F695E7956A95E1F7EF70FF27E153E6
:100F3000FE4F30813C93440F551FFA01E45FFE4F92
:100F4000DC01AF70BB27A153BE4F3C9130830E5FD5
:100F5000000FE02FF0E0E75FFE4FDC01AB2FBB2777
:100F6000A295AF70A153BE4F3C913083A3E0A20F76
:100F7000B0E0A75FBE4FE92FFF27EF70FF27E153D7
:100F8000FE4F80818C93245F209309021092080207
:100F900010920702109206026091050211E061278B
:100FA0008AE00E94C20110930A0280910A02811114
:100FB000FCCF0E9421024B015C0184E6C82ED12C9B
:100FC000E12CF12C0E942102681979098A099B09F8
:100FD000683E734081059105A8F3B1E0CB1AD108B2
:100FE000E108F108E8EE8E0EE3E09E1EA11CB11CA4
:100FF000C114D104E104F10429F7CE0149960E94FD
:101000001A03CE014F960E941A0380E090E0892BCC
:1010100009F48DCD0E94F600882309F488CD0E9442
:10102000000085CD163009F47CCD1092800088E058
:101030008093810080918100182B10938100309360
:1010400089002093880080916F00826080936F00F8
:1010500061E0809100010E94F00160E08BE00E945D
:10106000F00161E08AE00E94F001609105028AE0EF
:101070000E94C20156CDEBE0F2E01382128288EEAC
:1010800093E0A0E0B0E084839583A683B78381ECEE
:1010900091E09183808385EC90E09587848784EC50
:1010A00090E09787868780EC90E0918B808B81EC35
:1010B00090E0938B828B82EC90E0958B848B86EC16
:1010C00090E0978B868B118E128E138E148E08955E
:1010D000BB274A3031F4992322F4BDE290958195E3
:1010E0009F4F0C947408BB27FB015527AA27880F34
:1010F000991FAA1FA41710F0A41B83955051B9F78C
:10110000A05DAA3308F0A95DA193009779F7B1110A
:10111000B1931192CB010C948D08DC01FC01672F77
:1011200071917723E1F7329704C07C916D937083BE
:101130006291AE17BF07C8F30895E89409C097FB02
:101140003EF490958095709561957F4F8F4F9F4F9E
:101150009923A9F0F92F96E9BB279395F6958795E2
:1011600077956795B795F111F8CFFAF4BB0F11F4A5
:1011700060FF1BC06F5F7F4F8F4F9F4F16C088234C
:1011800011F096E911C0772321F09EE8872F762F82
:1011900005C0662371F096E8862F70E060E02AF0C3
:1011A0009A95660F771F881FDAF7880F96958795AF
:1011B00097F908950E94ED080C945E090E94500969
:1011C00038F00E94570920F0952311F00C9447093C
:1011D0000C944D0911240C9492090E946F0970F32C
:1011E000959FC1F3950F50E0551F629FF001729FCC
:1011F000BB27F00DB11D639FAA27F00DB11DAA1FDB
:10120000649F6627B00DA11D661F829F2227B00D27
:10121000A11D621F739FB00DA11D621F839FA00DB2
:10122000611D221F749F3327A00D611D231F849F02
:10123000600D211D822F762F6A2F11249F57504059
:101240009AF0F1F088234AF0EE0FFF1FBB1F661FD4
:10125000771F881F91505040A9F79E3F510580F09D
:101260000C9447090C9492095F3FE4F3983ED4F341
:10127000869577956795B795F795E7959F5FC1F741
:10128000FE2B880F911D9695879597F9089597F9EC
:101290009F6780E870E060E008959FEF80EC08951C
:1012A00000240A9416161706180609060895002445
:1012B0000A9412161306140605060895092E0394BF
:1012C000000C11F4882352F0BB0F40F4BF2B11F433
:1012D00060FF04C06F5F7F4F8F4F9F4F089557FD92
:1012E0009058440F551F59F05F3F71F04795880F94
:1012F00097FB991F61F09F3F79F08795089512162B
:1013000013061406551FF2CF4695F1DF08C01616D6
:1013100017061806991FF1CF869571056105089487
:101320000895E894BB2766277727CB0197F908959E
:101330002F923F924F925F926F927F928F929F92E5
:10134000AF92BF92CF92DF92EF92FF920F931F93D3
:10135000CF93DF93CDB7DEB7CA1BDB0B0FB6F89484
:10136000DEBF0FBECDBF09942A88398848885F84C4
:101370006E847D848C849B84AA84B984C884DF8035
:10138000EE80FD800C811B81AA81B981CE0FD11D19
:101390000FB6F894DEBF0FBECDBFED0108950E94D9
:1013A000D6096894B1110C94920908950E947709A6
:1013B00088F09F5798F0B92F9927B751B0F0E1F016
:1013C000660F771F881F991F1AF0BA95C9F714C0C6
:1013D000B13091F00E949109B1E008950C94910907
:1013E000672F782F8827B85F39F0B93FCCF38695FF
:1013F00077956795B395D9F73EF49095809570955C
:1014000061957F4F8F4F9F4F0895A1E21A2EAA1B1F
:10141000BB1BFD010DC0AA1FBB1FEE1FFF1FA217A4
:10142000B307E407F50720F0A21BB30BE40BF50BA1
:10143000661F771F881F991F1A9469F7609570952A
:10144000809590959B01AC01BD01CF010895EE0FF1
:10145000FF1F0590F491E02D09940F931F93CF93F4
:10146000DF938230910510F482E090E0E091AA02CF
:10147000F091AB0230E020E0B0E0A0E0309799F4CA
:101480002115310509F44AC0281B390B24303105D8
:10149000D8F58A819B816115710589F1FB019383E0
:1014A0008283FE0111C0408151810281138148175E
:1014B0005907E0F04817590799F4109761F0129610
:1014C0000C93129713961C933296CF01DF91CF9114
:1014D0001F910F9108950093AA021093AB02F4CFCD
:1014E0002115310551F04217530738F0A901DB01EE
:1014F0009A01BD01DF01F801C1CFEF01F9CF90934F
:10150000AB028093AA02CDCFFE01E20FF31F8193BD
:1015100091932250310939832883D7CF2091A80293
:101520003091A902232B41F42091AB013091AC0101
:101530003093A9022093A8022091A9013091AA0119
:101540002115310541F42DB73EB74091AD015091C1
:10155000AE01241B350BE091A802F091A902E2171D
:10156000F307A0F42E1B3F0B2817390778F0AC01C6
:101570004E5F5F4F2417350748F04E0F5F1F5093A3
:10158000A9024093A802819391939FCFF0E0E0E0FD
:101590009CCFCF93DF930097E9F0FC013297138241
:1015A0001282A091AA02B091AB02ED0130E020E0DE
:1015B0001097A1F420813181820F931F2091A802FE
:1015C0003091A9022817390709F061C0F093A902E8
:1015D000E093A802DF91CF910895EA01CE17DF07CB
:1015E000E8F54A815B819E0141155105B1F7E9019A
:1015F000FB83EA8349915991C40FD51FEC17FD076E
:1016000061F4808191810296840F951FE90199838D
:101610008883828193819B838A83F0E0E0E0129645
:101620008D919C9113970097B9F52D913C9111974D
:10163000CD010296820F931F2091A8023091A9023A
:101640002817390739F6309751F51092AB021092EE
:10165000AA02B093A902A093A802BCCFD383C283ED
:1016600040815181840F951FC817D90761F44E5FDF
:101670005F4F88819981480F591F518340838A8128
:101680009B81938382832115310509F0B0CFF093BC
:10169000AB02E093AA029ECFFD01DC01C0CF138212
:1016A0001282D7CFB0E0A0E0E8E5FBE00C949A0905
:1016B0008C01009751F4CB010E942D0A8C01C801C6
:1016C000CDB7DEB7E0E10C94B609FC01E60FF71FD9
:1016D0009C0122503109E217F30708F49DC0D9019B
:1016E000CD91DC911197C617D70798F0C530D10579
:1016F00030F3CE0104978617970708F3C61BD70B64
:101700002297C193D1936D937C93CF010E94C90A14
:10171000D6CF5B01AC1ABD0A4C018C0E9D1EA09168
:10172000AA02B091AB02512C412CF12CE12C109764
:1017300031F58091A8029091A9028815990509F0C8
:101740005CC04616570608F058C08091A9019091D8
:10175000AA01009741F48DB79EB74091AD01509119
:10176000AE01841B950BE817F90708F055C0F093FC
:10177000A902E093A802F90171836083A0CF8D9143
:101780009C91119712966C90129713967C901397D8
:10179000A815B90559F56C0142E0C40ED11CCA1454
:1017A000DB0420F1AC014A195B09DA0112961597A6
:1017B00080F06282738251834083D9016D937C9360
:1017C000E114F10471F0D7011396FC93EE93129794
:1017D00076CF22968C0F9D1FF90191838083F301B0
:1017E000EFCFF093AB02E093AA0269CF48165906F7
:1017F00008F42C017D01D3019ACFCB010E942D0A60
:101800007C01009749F0AE01B8010E940F0CC8019D
:101810000E94C90A870153CF10E000E050CFFB01BE
:10182000DC0102C001900D9241505040D8F708955C
:10183000FB01DC0101900D920020E1F70895F8947E
:02184000FFCFD8
:101842000C2A2A2A2A2A2A382C000000000000002A
:101852000000000000000000000000000000000086
:101862000000000000000000000000000000000076
:101872000000000000000000000000000000000066
:101882000000000000000000000000000000000056
:101892000000000000000000000000000000000046
:1018A2000000000000000000000000000000000036
:1018B2000000000000000000000000000000000026
:1018C2000000000000000000000000000000000016
:1018D2000000000000000000000000000000000006
:1018E2000000000000000000000000AC02800000C8
:1018F2000001000800400000010004050D00000086
:10190200002C018C00B9007901EA00C800DC000D4E
:101912000E131516191A1C232526292A2C323420B7
:10192200006E656172627920202C0069736F6C61B0
:081932007465642C000D0A002D
:00000001FF
